:100000000C9471050C9499050C9499050C94990520
:100010000C9499050C9499050C9499050C949905E8
:100020000C9499050C9499050C945F0D0C94D10DCA
:100030000C9499050C9499050C9499050C949905C8
:100040000C9499050C9499050C9499050C949905B8
:100050000C9499050C9499050C9499050C94F60749
:100060000C9499050C9499050C9499050C94990598
:100070000C9499050C9499050C9499050C94990588
:100080000C9499050C9499050C9499050C94990578
:100090000C9499050C9499050C9499050C94990568
:1000A0000C9499050C9499050C949905F0F89C8E84
:1000B0008783878E9CF8F00000FEFF030303030391
:1000C000070EFCF80000FEFF0303030303070EFC0A
:1000D000F80000FFFF00000000000000FFFF00002C
:1000E000FEFF8383838383C7EE7C380000F8FC0E19
:1000F00007030303070EFCF800003F7FE0C0808089
:10010000C0E07F3FFFFF01010101010101FFFF008E
:1001100000FFFF0C0C0C0C1C3E77E3C100007FFFBE
:10012000C0C0C0C0C0E0703F1F00001F3F70E0C0F3
:10013000C0C0E0703F1F00007FFFC1C1C1C1C1E36B
:10014000773E1C00001F3F70E0C0C0C0E0703F1F42
:10015000000000000001FFFF01000000D5F08D1439
:10016000A1C881CFD9F1AF2000000000000000003D
:10017000000000000000000000000000000000007F
:10018000000000000000000000000000000000006F
:10019000000000000000000000000000000000005F
:1001A000000000000000000000000000000000004F
:1001B000000000000000000000000000000000003F
:1001C000000000000000000000000000000000002F
:1001D000000000000000000000000000000000001F
:1001E000000000000000000000000000000000000F
:1001F00000000000000000000000000000000000FF
:1002000000000000000000000000000000000000EE
:1002100000000000000000000000000000000000DE
:1002200000000000000000000000000000000000CE
:1002300000000000000000000000000000000000BE
:1002400000000000000000000000000000000000AE
:10025000000000000000000000000000000000009E
:10026000000000000000000000000000000000008E
:10027000000000000000000000000000000000007E
:1002800000008080808080808080000000808080EE
:10029000000000008080800000000000000000805E
:1002A000808000000080808000000080808000004E
:1002B000000000000000000000000000000000003E
:1002C000000000000000000000000000000000002E
:1002D000000000000000000000000000000000001E
:1002E000000000000000000000000000000000000E
:1002F00000000000000000000000000000000000FE
:100300000000FFFFFF202020DFDF8F0000FCFCFC4F
:1003100000000004FFFFFF0400000000000000FFD9
:10032000FFFF000000FFFFFF000000FFFFFF0000D5
:10033000189C8484848CFCFCF80000FCFCFC181CD9
:100340001C1C0000787CFCE4C4C49C9800000000E5
:10035000000000000000000000000000000000009D
:10036000000000000000000000000000000000008D
:10037000000000000000000000000000000000007D
:1003800000000F0F0F0808080F0F0700000F0F0FD6
:1003900000000000070F0F0C000000000000000F1D
:1003A0000F0F0808080F0F0F0808080707010000C3
:1003B000070F0F0808080F0F0F00000F0F0F0000A6
:1003C00000000000060E0808090F0F0700000000DB
:1003D000000000000000000000000000000000001D
:1003E000000000000000000000000000000000000D
:1003F00000000000000000000000000000000000FD
:1004000000000000000000000000000000000000EC
:1004100000000000000000000000000000000000DC
:1004200000000000000000000000000000000000CC
:1004300000000000000000000000000000000000BC
:1004400000000000000000000000000000000000AC
:10045000000000000000000000000000000000009C
:10046000000000000000000000000000000000008C
:10047000000000000000000000000000000000007C
:10048000000000000000000000000000000000006C
:10049000000000000000000000000000000000005C
:1004A000000000000000000000000000000000004C
:1004B000000000000000000000000000000000003C
:1004C000000000000000000000000000000000002C
:1004D000000000000000000000000000000000001C
:1004E000000000000000000000000000000000000C
:1004F00000000000000000000000000000000000FC
:1005000000000000000000000000000000000000EB
:1005100000000000000000000000000000000000DB
:1005200000000000000000000000000000000000CB
:1005300000000000000000000000000000000000BB
:1005400000000000000000000000000000000000AB
:10055000000000000000000000000000000000009B
:10056000000000000000000000010204081020400C
:100570008000000000003E5B4F5B3E3E6B4F6B3ED9
:100580001C3E7C3E1C183C7E3C181C577D571C1C96
:100590005E7F5E1C00183C1800FFE7C3E7FF0018F1
:1005A000241800FFE7DBE7FF30483A060E262979DA
:1005B0002926407F050507407F05253F5A3CE73C3B
:1005C0005A7F3E1C1C08081C1C3E7F14227F2214EC
:1005D0005F5F005F5F06097F017F006689956A6043
:1005E0006060606094A2FFA29408047E040810205A
:1005F0007E201008082A1C08081C2A08081E101053
:1006000010100C1E0C1E0C30383E3830060E3E0EFC
:1006100006000000000000005F0000000700070067
:10062000147F147F14242A7F2A122313086462364D
:10063000495620500008070300001C2241000041D9
:10064000221C002A1C7F1C2A08083E080800807013
:100650003000080808080800006060002010080446
:10066000023E5149453E00427F4000724949494699
:100670002141494D331814127F1027454545393C17
:100680004A49493141211109073649494936464904
:1006900049291E0000140000004034000000081426
:1006A000224114141414140041221408020159099F
:1006B000063E415D594E7C1211127C7F49494936F4
:1006C0003E414141227F4141413E7F494949417F6D
:1006D000090909013E414151737F0808087F004123
:1006E0007F41002040413F017F081422417F40406C
:1006F00040407F021C027F7F0408107F3E41414141
:100700003E7F090909063E4151215E7F09192946AC
:10071000264949493203017F01033F4040403F1FC2
:100720002040201F3F4038403F63140814630304F7
:100730007804036159494D43007F41414102040857
:100740001020004141417F0402010204404040402A
:1007500040000307080020545478407F2844443860
:100760003844444428384444287F385454541800AA
:10077000087E090218A4A49C787F08040478004429
:100780007D40002040403D007F1028440000417F14
:1007900040007C047804787C08040478384444449D
:1007A00038FC1824241818242418FC7C0804040895
:1007B000485454542404043F44243C4040207C1CAE
:1007C0002040201C3C4030403C44281028444C90A1
:1007D00090907C4464544C440008364100000077FB
:1007E0000000004136080002010204023C262326D4
:1007F0003C1EA1A161123A4040207A385454555908
:10080000215555794121545478412155547840203F
:10081000545579400C1E5272123955555559395458
:1008200054545939555454580000457C41000245F0
:100830007D420001457C40F0292429F0F02825283C
:10084000F07C545545002054547C547C0A097F495F
:1008500032494949323248484832324A4848303AA7
:100860004141217A3A42402078009DA0A07D394440
:100870004444393D4040403D3C24FF2424487E49C7
:1008800043662B2FFC2F2BFF0929F620C0887E09F9
:100890000320545479410000447D413048484A3295
:1008A000384040227A007A0A0A727D0D19317D267D
:1008B00029292F28262929292630484D4020380863
:1008C00008080808080808382F10C8ACBA2F1028E4
:1008D00034FA00007B000008142A142222142A147F
:1008E000089500220095AA005500AAAA55AA55AA63
:1008F000000000FF00101010FF00141414FF00107F
:1009000010FF00FF1010F010F0141414FC00141469
:10091000F700FF0000FF00FF1414F404FC14141788
:10092000101F10101F101F1414141F00101010F0AF
:10093000000000001F101010101F10101010F010F9
:10094000000000FF101010101010101010FF100009
:100950000000FF140000FF00FF00001F1017000040
:10096000FC04F414141710171414F404F40000FF1A
:1009700000F714141414141414F700F714141417B3
:100980001410101F101F141414F4141010F010F091
:1009900000001F101F0000001F14000000FC1400C6
:1009A00000F010F01010FF10FF141414FF141010BA
:1009B000101F00000000F010FFFFFFFFFFF0F0F03D
:1009C000F0F0FFFFFF0000000000FFFF0F0F0F0F10
:1009D0000F38444438447C2A2A3E147E020206061C
:1009E000027E027E0263554941633844443C044020
:1009F0007E201E2006027E020299A5E7A5991C2AE8
:100A0000492A1C4C7201724C304A4D4D30304878A6
:100A10004830BC625A463D3E494949007E010101C9
:100A20007E2A2A2A2A2A44445F444440514A4440A8
:100A300040444A51400000FF0103E080FF000008ED
:100A4000086B6B083612362436060F090F060000B5
:100A500018180000001010003040FF0101001F01B5
:100A6000011E00191D1712003C3C3C3C0000000018
:100A700000080B000202020100090400000102024A
:100A800000000524001001052401010104240206D0
:100A90000524060001070581031000400904010038
:100AA000020A000000070502024000000705830259
:100AB0004000000403090412010002EF020140415A
:100AC00023368000010102030141726475696E6F73
:100AD000204C4C430041726475626F7900001B1911
:100AE000F51811241FBECFEFDAE0DEBFCDBF11E055
:100AF000A0E0B1E0E4EAFBE302C005900D92AE3A5B
:100B0000B107D9F726E0AEEAB1E001C01D92A639DF
:100B1000B207E1F715E0C0E7D5E004C02197FE0178
:100B20000E94AA1BCF36D107C9F70E942D140C943E
:100B3000C51D0C9400000895CF92DF92EF92FF92B2
:100B40000F931F93CF93DF936C017A018B01C0E069
:100B5000D0E0CE15DF0589F0D8016D918D01D60169
:100B6000ED91FC910190F081E02DC6010995892B52
:100B700011F47E0102C02196ECCFC701DF91CF9125
:100B80001F910F91FF90EF90DF90CF9008953FB7A6
:100B9000F8948091B7019091B801A091B901B091FA
:100BA000BA0126B5A89B05C02F3F19F00196A11DDB
:100BB000B11D3FBFBA2FA92F982F8827820F911DF3
:100BC000A11DB11DBC01CD0142E0660F771F881F3A
:100BD000991F4A95D1F708950895089580E090E00F
:100BE00008950E94A71D0F931F93CF93DF938C014D
:100BF000EB01FC01808191810097B1F068817981DE
:100C00006115710579F0428153812C813D81421734
:100C1000530740F00E94BE1D8C819D81F801958391
:100C2000848313C00E94451C88819981F8019183B7
:100C300080838A819B81938382838C819D8195832C
:100C40008483198218821B821A821D821C82DF9182
:100C5000CF911F910F9108950F931F93CF93DF931F
:100C6000EC0188819981009729F02A813B81261720
:100C7000370788F48B016F5F7F4F0E94DD1C009760
:100C800061F0998388831B830A832C813D81232B08
:100C900011F4FC01108281E001C080E0DF91CF916E
:100CA0001F910F910895FC0124813581232B31F48C
:100CB00021E061157105A1F0FB0108C0FC018081F4
:100CC00091816115710531F421E0FC018081882357
:100CD00039F005C00E94B51D21E0892B09F020E004
:100CE000822F0895EF92FF920F931F93CF93DF937C
:100CF000FC01248135816115710511F480E019C072
:100D000041155105A9F07B01EC018A01020F131F67
:100D1000B8010E942C06882389F3288139818C81AF
:100D20009D81B701820F931F0E94BE1D1D830C83FE
:100D300081E0DF91CF911F910F91FF90EF90089587
:100D4000CF93DF93EC0188819981009711F00E9485
:100D5000451C198218821D821C821B821A82DF9117
:100D6000CF910895CF93DF93EC016115710561F088
:100D7000FB0101900020E9F73197AF01461B570BAB
:100D80000E947206811103C0CE010E94A006CE010E
:100D9000DF91CF910895CF93DF93EC01FB01448164
:100DA0005581608171810E947206811103C0CE015C
:100DB0000E94A006CE01DF91CF910895EF92FF929D
:100DC0000F931F93CF93DF93EC017B018A01BA014C
:100DD0000E942C06811104C0CE010E94A00607C00B
:100DE0001D830C83B701888199810E94BE1DCE01AD
:100DF000DF91CF911F910F91FF90EF900895CF93C6
:100E0000DF93EC01FB018617970761F06081718128
:100E10006115710529F0448155810E94DE0602C0EA
:100E20000E94A006CE01DF91CF910895EF92FF922C
:100E30000F931F93CF93DF93CDB7DEB729970FB6EC
:100E4000F894DEBF0FBECDBF8C01862FF801118252
:100E50001082138212821582148250E09E012F5F4D
:100E60003F4F7901B90190E00E949D1AF70101906E
:100E70000020E9F73197AF014E195F09B701C801AA
:100E80000E94DE0629960FB6F894DEBF0FBECDBFD6
:100E9000DF91CF911F910F91FF90EF900895FC018A
:100EA000808191810C94451CFC0111821082138277
:100EB0001282158214820C94FF06FC0111821082AA
:100EC00013821282158214826115710551F0FB01A3
:100ED00001900020E9F73197AF01461B570B0C94A6
:100EE000DE060895CF92DF92EF92FF920F931F9349
:100EF000CF93DF9300D000D000D0CDB7DEB76C0128
:100F0000FC0163834AE08E010F5F1F4FC8010E94FE
:100F100016077601F5E0EF0EF11CE016F10621F060
:100F2000B801C7010E94F305C8010E944F0764E899
:100F300071E0C8010E945D07B701C8010E94CB069D
:100F400066E871E00E94B206BC01C7010E94FF067C
:100F5000C8010E944F07F601148226960FB6F89436
:100F6000DEBF0FBECDBFDF91CF911F910F91FF90DC
:100F7000EF90DF90CF9008958F929F92AF92BF92A3
:100F8000CF92DF92EF92FF926B017C010E94C70526
:100F90004B015C01C114D104E104F104F1F00E94A1
:100FA000C705DC01CB0188199909AA09BB09883E4C
:100FB0009340A105B10570F321E0C21AD108E10800
:100FC000F10888EE880E83E0981EA11CB11CC114A4
:100FD000D104E104F10419F7DDCFFF90EF90DF9029
:100FE000CF90BF90AF909F908F9008951F920F92D7
:100FF0000FB60F9211242F933F938F939F93AF932C
:10100000BF938091AE019091AF01A091B001B091DA
:10101000B1013091B60123E0230F2D3720F4019662
:10102000A11DB11D05C026E8230F0296A11DB11D0B
:101030002093B6018093AE019093AF01A093B001CD
:10104000B093B1018091B7019091B801A091B9011D
:10105000B091BA010196A11DB11D8093B701909383
:10106000B801A093B901B093BA01BF91AF919F911C
:101070008F913F912F910F900FBE0F901F90189559
:101080002D9A0895BC0180E090E00C94BC078FB1CC
:101090008095807F669B88601C9B846008950C947B
:1010A000D21A60387105D0F440345105B8F4E9E63D
:1010B000F5E080E1849FD001A0781124A60F47704D
:1010C000E40FF11D8491AB53BE4F222319F06C91B4
:1010D000862B03C080956C9186238C9308952F9264
:1010E0003F924F925F926F927F928F929F92AF92B8
:1010F000BF92CF92DF92EF92FF920F931F93CF9305
:10110000DF93CDB7DEB729970FB6F894DEBF0FBED9
:10111000CDBFFC016A3069F425898189928938E064
:10112000239F800D911D1124928B818B108A17862D
:10113000AAC06D3009F4A7C099878887F5883488DC
:101140002388618872880785108900381105C4F0EA
:10115000A885B98555962C915597422F50E01F963A
:101160008D919C915097B6E02B9F800D911D11247D
:10117000E885F985908B8787268921116EC083C009
:10118000F0E46F16710424F7C80125E0F29E800D8B
:10119000911D112418161906DCF68F2D90E09C8302
:1011A0008B83C301A8E0FA9E800D911D11241816AF
:1011B000190674F6B5E06B9FB0011124FB01EF58DE
:1011C000FA4FFA83E98330E08885998504969E83F7
:1011D0008D83E981FA81E490353009F4E12C4301F3
:1011E00088E0482EE0FC02C0532C01C0522C511064
:1011F0000BC0321009C0E6944A948B819C81880E02
:10120000991E4110EFCF1BC068018C2D801B8F15DC
:1012100090F754018A2D88198F1568F4252DA501A2
:10122000B6018D819E813F830E9451089FEFA91ACC
:10123000B90A3F81EFCFAFEFCA1ADA0AE6CF3F5FB4
:10124000EB81FC810E0F1F1F89819A8101969A8381
:101250008983363009F0BDCF7BCF6AEF64039001FC
:10126000659F300D112420583F4F281739075CF433
:10127000A885B985ED91FC9111970190F081E02D41
:101280006AE0CD01099581E090E029960FB6F894C7
:10129000DEBF0FBECDBFDF91CF911F910F91FF90A9
:1012A000EF90DF90CF90BF90AF909F908F907F9006
:1012B0006F905F904F903F902F900895DF92EF9244
:1012C000FF920F931F93CF93DF93CDB7DEB728978D
:1012D0000FB6F894DEBF0FBECDBF8C01D62E82E0D4
:1012E000F801828314827801F5E0EF0EF11C6DE6BF
:1012F00071E0C70128874F830E945D07F801D08203
:101300004F814183288523834AE0622F8E010F5F3E
:101310001F4FC8010E941607E016F10621F0B80120
:10132000C7010E94F305C8010E944F0764E871E0FD
:10133000C8010E945D07B701C8010E94CB0666E89C
:1013400071E00E94B206BC01C7010E94FF06C801FD
:101350000E944F0728960FB6F894DEBF0FBECDBF90
:10136000DF91CF911F910F91FF90EF90DF90089543
:101370000F931F93CF93DF93CDB7DEB72C970FB6A4
:10138000F894DEBF0FBECDBF0AE010E010932F0629
:1013900000932E06109231061092300662E176E03C
:1013A000CE0107960E945407BE01695F7F4FCE01B0
:1013B00001960E94540765EC75E0CE0101960E94EB
:1013C000CB060E947313CE0101960E944F07CE01F7
:1013D00007960E944F0710932F0600932E0688E36E
:1013E00090E09093310680933006609118067091DA
:1013F000190680911A0690911B060E94FA1280919C
:101400000B0690E010922F0610922E069093310654
:10141000809330066CE076E0CE0101960E9454077E
:10142000CE0101960E947313CE0101960E944F07D0
:101430008091000690E02091FF0530E030932F0668
:1014400020932E06909331068093300680910306F8
:1014500081110EC064E076E0CE0101960E9454072F
:10146000CE0101960E947313CE0101960E944F0790
:101470008091F50590E02091F40530E030932F063F
:1014800020932E0690933106809330068091F805C4
:1014900081110EC069EF75E0CE0101960E945407DC
:1014A000CE0101960E947313CE0101960E944F0750
:1014B0008091EA0590E02091E90530E030932F0615
:1014C00020932E0690933106809330068091ED058F
:1014D00081110EC06EEE75E0CE0101960E94540798
:1014E000CE0101960E947313CE0101960E944F0710
:1014F00028E030E040E850E068E070E080E090E014
:101500000E94131026E330E040E850E066E370E00C
:1015100080E090E00E94131080E590E090932F0609
:1015200080932E0688E390E09093310680933006F6
:101530008091B2019091B301892B19F488E891E070
:1015400002C08EE891E00E940110E091B201F0919A
:10155000B301309751F0238130E0428150E0618146
:1015600070E0808190E00E9413102C960FB6F894E2
:10157000DEBF0FBECDBFDF91CF911F910F910895B8
:101580000F931F93CF93DF930E94261A02E010E07F
:10159000B8010E94961BD82F0E94261AB8010E94FB
:1015A000961B182FD13019F4813029F40CC0D111B9
:1015B00002C0882351F00E94261A62E070E00E9467
:1015C000961BC82F03C0C0E001C0C1E06D2F8FEF94
:1015D00095E00E947207D0E7D093FF05612F84EF5A
:1015E00095E00E947207D093F4056C2F89EE95E088
:1015F0000E947207D093E905DF91CF911F910F915F
:101600000895EF92FF920F931F93CF93DF9300D033
:1016100000D000D0CDB7DEB78091180690911906A2
:10162000A0911A06B0911B068F3F9F4FAF4FBF4747
:1016300019F483E08093B40140E050E06DE671E07E
:1016400085EC95E00E94DE060E94261A8C010E941D
:10165000261A7C010E94261A65E070E00E94961B03
:1016600026E0289FB001299F700D112465537A4F01
:10167000CE0101960E94540720E230E0C701B90173
:101680000E94961BE82FC801B9010E94961BAE016B
:101690004F5F5F4F6E2F0E94FC10CE0101960E949B
:1016A0004F070E94C00A26960FB6F894DEBF0FBE01
:1016B000CDBFDF91CF911F910F91FF90EF900895D3
:1016C000FF920F931F93CF93DF93CDB7DEB72A9787
:1016D0000FB6F894DEBF0FBECDBFF82E65EC75E0F7
:1016E000CE0101960E9454078E01095F1F4F4AE008
:1016F000B8018F2D90E00E94921AF801019000200D
:10170000E9F73197AF01401B510BB801CE010196AB
:101710000E947206811104C0CE0101960E94A006AB
:10172000BE016F5F7F4F85EC95E00E94FF06CE0102
:1017300001960E944F078091C9059091CA050597AF
:10174000B8F065EC75E0CE0101960E945407CE0119
:1017500001960E94AD12182FCE0101960E944F07EC
:10176000112319F00E94010B03C083E08093B401A0
:101770002A960FB6F894DEBF0FBECDBFDF91CF9192
:101780001F910F91FF9008950F931F93CF93DF93B5
:1017900000E420E849E651E060E070E080E090E09D
:1017A0000E949F118EE290E090932F0680932E0668
:1017B00088E390E0909331068093300687E991E0CA
:1017C0000E94011088E00E9494118823D9F181E0E1
:1017D0008093B401809164008E7F80936400809137
:1017E0007A00806480937A0080917A0086FDFCCF35
:1017F000C0917800D09179000E94C7058E0120E049
:1018000030E0980111270027600F711F821F931F7E
:10181000611571058105910511F00E94891A809169
:10182000640081608093640010921806109219067B
:1018300010921A0610921B06DF91CF911F910F9103
:101840000C94010BDF91CF911F910F910895CF93CD
:10185000DF931F92CDB7DEB76983DC01ED91FC9178
:101860000280F381E02D41E050E0BE016F5F7F4FC9
:1018700009950F90DF91CF91089583E08093E9005F
:101880008091F200882319F08AE38093E80008959C
:10189000FC018485958597FD0BC09FB7F89482E085
:1018A0008093E9008091F2009FBF90E00196089537
:1018B0009FB7F89482E08093E9008091F2009FBF87
:1018C00090E008958F929F92AF92BF92CF92DF9255
:1018D000EF92FF920F931F93CF93DF935C016B0105
:1018E0007A0180910B01882309F45BC08091C401C7
:1018F000882309F456C08091C10180FF05C0809102
:10190000E00082608093E000E70110E00AEF83E0EE
:10191000882E9AE3992E2097D9F10E94A61381115F
:101920000AC0015009F43DC061E070E080E090E041
:101930000E94BC07F0CF282F30E0C217D3070CF469
:101940008C2F4FB7F8948092E9009091E80095FFB2
:101950001DC0282F30E0C21BD30BF601982F9150E9
:1019600020F081918093F100FACFC20ED31E112393
:1019700019F09092E80009C08091E80085FD06C04A
:101980009092E80011E0209709F010E04FBFC3CF1C
:101990001111C3CF5D9884E68093C2011E141F0409
:1019A00044F081E090E0F5019383828380E090E051
:1019B00001C0C701DF91CF911F910F91FF90EF9070
:1019C000DF90CF90BF90AF909F908F9008950E942E
:1019D000A61390E008950F931F93CF93DF931F9268
:1019E000CDB7DEB78C01FC018485958597FF0EC0CD
:1019F000CE0101960E947C13019719F4298130E0F1
:101A000002C02FEF3FEFF80135872487F801848566
:101A100095850F90DF91CF911F910F910895CF93EE
:101A2000DF931F92CDB7DEB7FC018485958597FDC6
:101A300005C02FEF3FEF358724870BC0CE010196FD
:101A40000E947C13019719F4898190E002C08FEF06
:101A50009FEF0F90DF91CF9108950F931F93CF9336
:101A6000DF931F92CDB7DEB782E0898342E450E076
:101A700061E77AE080E80E94F9130E94B713DC0165
:101A800012960D911C9113970115110569F0D8015B
:101A9000ED91FC910280F381E02DBE016F5F7F4FDD
:101AA000C801099597FF07C089810F90DF91CF91F9
:101AB0001F910F910895F80100851185E5CF1F92C0
:101AC0000F920FB60F9211248F939F938091E10094
:101AD0009091E100937F9093E10083FF0FC01092FB
:101AE000E90091E09093EB001092EC0092E3909368
:101AF000ED001092C40198E09093F00082FF20C0A6
:101B000093E09093E9009091F200992319F09AE301
:101B10009093E8009091C201992339F09091C2010D
:101B200091509093C201992389F19091C301992317
:101B300039F09091C30191509093C301992341F1E1
:101B400084FF10C08091E2008E7E81608093E2006D
:101B50008091E1008F7E8093E1008091C1018E7EB3
:101B6000806111C080FF16C08091E2008E7E80618E
:101B70008093E2008091E1008E7E8093E10080916D
:101B8000C1018E7E81608093C10104C05D9ACDCF7A
:101B9000289AD6CF9F918F910F900FBE0F901F90D4
:101BA00018951F920F920FB60F921124CF92DF92C9
:101BB000EF92FF920F931F932F933F934F935F9357
:101BC0006F937F938F939F93AF93BF93EF93FF9305
:101BD000CF93DF93CDB7DEB76C97DEBFCDBF10924A
:101BE000E9008091E80083FFEDC168E0CE014596F1
:101BF0000E94201482EF8093E8008D8987FF05C042
:101C00009091E80090FFFCCF03C09EEF9093E80016
:101C1000982F907609F0C6C09E892F89188D911152
:101C20000CC0803829F48091C0018093F10002C07B
:101C30001092F1001092F10048C1422F50E0512B58
:101C4000913051F4811141C14130510509F03DC13C
:101C50008091C0018D7F0BC0933061F4811135C13B
:101C60004130510509F031C18091C00182608093FB
:101C7000C0012BC1953041F48091E80080FFFCCF7A
:101C800020682093E30021C1963009F05FC0EB8CFF
:101C9000FC8C1092E9001092BE011092BD0112302E
:101CA00091F51092BC011092BB010E942D0D99E09C
:101CB000BE016F5F7F4FDB01E92F1D92EA95E9F7C7
:101CC00099831A8391E09E8390EA98879AEF998787
:101CD0002091BD013091BE01275F3F4F3C832B8394
:101CE0008D831092E9001092BE011092BD01F09216
:101CF000BC01E092BB0149E050E080E00E94F91392
:101D00000E942D0DE2C0F092BC01E092BB010E9446
:101D1000B713DC011296ED90FC901397E114F104D7
:101D200009F4C0C0D701ED91FC910480F581E02D4C
:101D3000BE016B5E7F4FC7010995009719F00CF04B
:101D4000C4C0C7C0F701E084F184E8CF973009F43C
:101D5000C0C0983021F481E08093F100B6C0993082
:101D600009F0B3C0837009F0B4C0EBE1F1E081E0A9
:101D700021E036E39081992361F08093E90020937C
:101D8000EB0091919093EC003093ED008F5F8730E2
:101D900089F78EE78093EA001092EA008F8980939A
:101DA000C40193C08B8D9C8D1092E9001092BE01EE
:101DB0001092BD019093BC018093BB01898D81116C
:101DC00056C08E899D89913A59F4813209F081C0BB
:101DD00047E050E064E071E080E00E94F91375C0D4
:101DE000913209F076C0833289F4888D90E0982F83
:101DF00088272F89822BA0E0B0E080930001909388
:101E00000101A0930201B09303015FC0803269F425
:101E10008091E80082FFFCCF67E084E091E00E94BF
:101E200020148BEF8093E80006C0823209F04DC089
:101E30008F8980930B018091BF01882319F0EEEF09
:101E4000FAE002C0E0E0F8E0809104019091050121
:101E5000A0910601B0910701803B9440A105B10516
:101E600009F07BC080910B0180FF93C076C00E9477
:101E7000B713DC0112960D911C91139701151105F2
:101E800041F1D801ED91FC910190F081E02DBE016E
:101E90006B5E7F4FC8010995811117C0F80100855D
:101EA0001185ECCF113009F44EC0133091F48F89B5
:101EB000882309F445C0823081F440E867E085ED6D
:101EC0009AE00E949D19882321F08EEF8093E8000C
:101ED00079C081E28093EB0075C0813029F440E83D
:101EE0006BE089EC9AE0EDCF833099F70E94B7134D
:101EF000DC011296ED90FC9013978E010F5F1F4F3F
:101F00006801E114F10479F0D701ED91FC910680AC
:101F1000F781E02DB801C7010995080F111DF701E0
:101F2000E084F184EECFD8011C92F60101900020EC
:101F3000E9F73197BF016C197D0940E0C601C1CFB7
:101F400063EB7AE002C067EB7AE06115710509F294
:101F5000FB01449150E080E840CF0FB6F894A8957B
:101F600080916000886180936000109260000FBED5
:101F7000A895EE3F2AE0F20739F08091FE0A909191
:101F8000FF0A91838083A1CF1092FF0A1092FE0A6C
:101F90009CCFEE3F8AE0F80731F0808191819093E9
:101FA000FF0A8093FE0A87E797E7918380839BE08F
:101FB00088E10FB6F894A895809360000FBE9093C7
:101FC000600083CF6C960FB6F894DEBF0FBECDBF16
:101FD000DF91CF91FF91EF91BF91AF919F918F9141
:101FE0007F916F915F914F913F912F911F910F9131
:101FF000FF90EF90DF90CF900F900FBE0F901F904B
:102000001895009769F0FC0101900020E9F73197DD
:10201000AF01481B590BBC018FE196E00C949C0565
:1020200080E090E008955F926F927F928F929F92EE
:10203000AF92BF92CF92DF92EF92FF920F931F93D6
:10204000CF93DF93EC018B017A01A901461B570B5B
:1020500057FF03C0519541955109C7018C1B9D0B3A
:1020600097FF03C091958195910955245394841746
:10207000950714F0512C0AC09E2D8F2D7901292F20
:10208000382F9C2F8D2FE801092F182FEC16FD06F5
:1020900054F4902F812F8901292F382F9C2F8D2FB9
:1020A000E701E92EF82E37016C1A7D0A5901A01AB2
:1020B000B10AB7FE03C0B194A194B108630177FEE1
:1020C00003C08FEFC81AD80AD594C7940217130714
:1020D00014F08FEF01C081E0882E880F9908EC166C
:1020E000FD06B4F021E0552019F0AE01B80102C0A0
:1020F000A801BE0183E296E00E945108CA18DB08DD
:10210000D7FE04C0080D191DC60CD71C2196E7CFB9
:10211000DF91CF911F910F91FF90EF90DF90CF90C3
:10212000BF90AF909F908F907F906F905F90089539
:10213000AF92BF92CF92DF92EF92FF920F931F93D5
:10214000CF93DF93CDB7DEB72E970FB6F894DEBFEF
:102150000FBECDBF8C01A62E6DE671E00E945D071B
:1021600084E0E82EF12CB12CCE0101966C01B8016F
:10217000CE0109960E9454074AE0B601C5010E2C13
:1021800002C0959587950A94E2F7817099270E947D
:10219000921AF60101900020E9F73197AF014C192E
:1021A0005D09B601CE0109960E947206811104C034
:1021B000CE0109960E94A006BE01675F7F4FC8014D
:1021C0000E94FF06CE0109960E944F0791E0E91A8E
:1021D000F10868F6C8012E960FB6F894DEBF0FBE60
:1021E000CDBFDF91CF911F910F91FF90EF90DF90C6
:1021F000CF90BF90AF900895EF92FF920F931F93EF
:10220000CF93DF93CDB7DEB762970FB6F894DEBFFA
:102210000FBECDBF082F162F7A0162EA71E0CA0106
:102220000E945306882319F0802F812309C064EA95
:1022300071E0C7010E945306882329F0802F812B6B
:1022400080931E0621C066EA71E0C7010E94530612
:10225000882319F0802F8127F3CF6BEA71E0C70143
:102260000E945306202F30E0882339F0012E02C04F
:10227000359527950A94E2F705C0012E01C0220F7B
:102280000A94EAF720931E06612FCE0101960E9460
:102290009810602FCE010D960E949810BE01635FCA
:1022A0007F4FCE0107960E945407B701CE010796D3
:1022B0000E94CB06BE016F5F7F4F0E94CB0660EA93
:1022C00071E00E94B206BC0182E196E00E94FF0626
:1022D000CE0107960E944F07CE010D960E944F0730
:1022E000CE0101960E944F07809118069091190621
:1022F000A0911A06B0911B060196A11DB11D8093F5
:10230000180690931906A0931A06B0931B066296BE
:102310000FB6F894DEBF0FBECDBFDF91CF911F91F6
:102320000F91FF90EF90089520912906282329F41A
:1023300090912806982381E009F480E008952F9277
:102340003F924F925F926F927F928F929F92AF9245
:10235000BF92CF92DF92EF92FF920F931F93CF9392
:10236000DF93CDB7DEB728970FB6F894DEBF0FBE68
:10237000CDBF5A01822E912C9C01280D391D37FDAD
:10238000C4C0803891050CF0C0C09B01200F311DE6
:1023900037FDBBC0603471050CF0B7C0AB0177FFEF
:1023A00004C044275527461B570B477055279B01F0
:1023B00077FF02C0295F3F4FE3E035952795EA9507
:1023C000E1F777FF08C02150310968E070E0DB01D8
:1023D000A41BB50BAD01602F66956695669570E000
:1023E000077011F06F5F7F4FDB01A20FB31FBA833D
:1023F000A98339017694762C662477946794680EC5
:10240000791EE12CF12C00E010E02301B0E84B0E26
:10241000511C68E070E0DB01A41BB50BBC83AB83EF
:1024200069817A812617370709F46FC02830310592
:1024300009F46BC02F3FBFEF3B070CF45BC0B20148
:10244000600F711FDB01AB53BE4FBE83AD83D8015C
:10245000A60DB71DAB53BE4F6C0160E070E0681570
:1024600079050CF047C0E0E8CE16D10409F442C06B
:10247000D7FC34C02F3FFFEF3F0709F442C0FB01F8
:10248000EE0DFF1DEA0DFB1DE491042E01C0EE0FC1
:102490000A94EAF73C90E329EC9341155105F1F0D9
:1024A00027303105D9F0FB01EE0DFF1DEA0DFB1DB4
:1024B000E4912E2E312CF1010B8002C0F595E795A9
:1024C0000A94E2F7F887EF83ED81FE813080EF8197
:1024D000F885E3291F01ED81FE8120826F5F7F4F28
:1024E000ED81FE813196FE83ED83FFEFCF1ADF0A87
:1024F0001196B5CF2F5F3F4F00581F4FE80CF91CC6
:102500008FCF4115510579F6E9CF28960FB6F8948B
:10251000DEBF0FBECDBFDF91CF911F910F91FF9016
:10252000EF90DF90CF90BF90AF909F908F907F9073
:102530006F905F904F903F902F900895E5ECF1E001
:10254000A0E0B8E000800EBC8111012C1197A0FD25
:10255000FDCF0192B9F70DB408950F931F93CF9358
:10256000DF9300D000D000D0CDB7DEB78C016091F2
:102570001E06CE0101960E949810F8012481358133
:102580008D819E812817390711F58081918169819C
:102590007A81009719F061157105A1F46115710533
:1025A00049F0232BB1F0FB01808190E0919581955A
:1025B00091090AC0009769F0232B59F0FC01808132
:1025C00090E002C00E94B51D11E0892B19F010E0C7
:1025D00001C011E0CE0101960E944F07812F26967F
:1025E0000FB6F894DEBF0FBECDBFDF91CF911F9124
:1025F0000F9108958F929F92AF92BF92CF92DF92E8
:10260000EF92FF920F931F93CF93DF93CDB7DEB777
:10261000A1970FB6F894DEBF0FBECDBF6B017C0152
:1026200097FF31C0E0911F06F09120060190F081E4
:10263000E02D6DE28FE196E009958C01222733278A
:10264000A9012C193D094E095F0919A2CE018196F5
:102650007C019AE0892E912CA12CB12CCA01B901E0
:10266000A50194010E94511B605DF70162937F01F7
:10267000211531054105510589F7CF010E9401104F
:10268000800F911F1DC09B01AC0119A28E010F5D2F
:102690001F4F8AE0C82ED12CE12CF12CCA01B901C0
:1026A000A70196010E94511B605DF80162938F01A2
:1026B000211531054105510589F7CF010E9401100F
:1026C000A1960FB6F894DEBF0FBECDBFDF91CF91BC
:1026D0001F910F91FF90EF90DF90CF90BF90AF9040
:1026E0009F908F900895FC01448155816081718194
:1026F0008FE196E00C949C05FC018091C40181114E
:1027000003C08FEF9FEF08959FB7F89482E0809306
:10271000E9002091F20030E01216130614F421E0D3
:1027200030E02115310559F0289884E68093C301E3
:102730008091F10080838091F200882319F09FBF7F
:10274000C90108958BE68093E800F9CF2FB7F8947C
:1027500083E08093E9009091E800892F807295FFD3
:1027600004C09091F20080E4891B2FBF08958091EE
:102770003A0681110DC082E08093360684E0809392
:102780003706109239061092380681E080933A0697
:1027900086E396E008954091BD015091BE012091DD
:1027A000BB013091BC0142175307B4F49091E8008B
:1027B0009570E1F39091E80092FD19C08093F100CB
:1027C0008091BD019091BE0101968F739927892B4D
:1027D00019F48EEF8093E8008091BD019091BE01C5
:1027E00001969093BE018093BD0181E0089580E041
:1027F0000895DF92EF92FF920F931F93CF93DF9391
:10280000D82E8A017B01E40EF51EEB01CE15DF0503
:1028100071F0D7FE03C0FE01849101C088810E943F
:10282000CB1321968111F2CF8FEF9FEF01C0C8012A
:10283000DF91CF911F910F91FF90EF90DF9008955E
:10284000615030F02091F100FC0120830196F8CF17
:10285000289884E68093C3010895CF93DF93CDB782
:10286000DEB72C970FB6F894DEBF0FBECDBF7894BD
:1028700084B5826084BD84B5816084BD85B5826085
:1028800085BD85B5816085BD80916E008160809336
:102890006E0010928100809181008260809381009F
:1028A00080918100816080938100809180008160AF
:1028B000809380008091910082608093910080914C
:1028C000910081608093910080919000816080935D
:1028D00090008091C10084608093C1008091C1000C
:1028E00082608093C1008091C10081608093C100AB
:1028F0008091C30081608093C3008091C00082609A
:102900008093C0008091C20081608093C20080915A
:102910007A00846080937A0080917A00826080934C
:102920007A0080917A00816080937A0080917A00A9
:10293000806880937A001092C4011092C0011092B6
:10294000C1018091D70081608093D70080EA809395
:10295000D80089B5806189BD89B5826089BD09B417
:1029600000FEFDCF61E070E080E090E00E94BC07D7
:102970008091D8008F7C80618093D8008091E000A6
:10298000807F8093E0008091E1008E7E8093E10063
:102990008DE08093E200559A209AEEEFFFE7859153
:1029A00094918B3F9C4D19F481E08093BF0181ECA1
:1029B00080937C0085B1806F85B984B1877E84B9AE
:1029C00084B1876E84B95E9A5F988AB1806D8AB946
:1029D000769A6E9881B3806F81BB899880B38D7031
:1029E00080BB80E58CBD81E08DBD85E090E00E94DC
:1029F00042085F9A85E090E00E9442085E985C98E9
:102A0000ECE5F1E08DE08E0F94919EBD00000DB4D9
:102A100007FEFDCF31968E13F7CF5C9A81E8809345
:102A200064008091650081608093650080E00E9471
:102A30009E120E94470887FF24C05C9885EA8EBDDD
:102A400000000DB407FEFDCF5C9A2E982F982D98AC
:102A50008091640080628093640081E083BF8895E8
:102A600013BEFCCF2D980E9447088478843871F0FB
:102A70000E9447088471843131F188EC90E00E9413
:102A800042080E94470882FDEDCF3AC00E944008EC
:102A900088EC90E00E9442082F9882E090E00E942B
:102AA000D21A8F3F29F06FEF82E090E00E94DA1A8D
:102AB00084EF91E00E9442082F9A0E944708847890
:102AC0008438D9F3D5CF0E94400888EC90E00E946A
:102AD00042082E9882E090E00E94D21A882329F0C2
:102AE00060E082E090E00E94DA1A84EF91E00E94B8
:102AF00042082E9A0E94470884718431D9F3BDCFD1
:102B00000E94400882E090E00E94D21A882331F0AF
:102B10003E9A3F9A81E08093B50104C01092B501BE
:102B20003E983F9881E090E00E944F0882FB112779
:102B300010F981FF44C011112E9860EFE62EFF249A
:102B4000FA940E94470886FF04C02E9A2F9A2D9A65
:102B500036C0112331F084E0E816F10411F42E9A06
:102B60002F9881E00E949E1200E128E54CEA50E097
:102B7000B70184E190E00E949F1180E00E949E12C4
:102B80008FE090E00E944208EFEFEE1AFE0AF9E1B2
:102B9000EF16F104B1F6112311F02F9A2D9880E968
:102BA00091E00E9442080E944008E0912306F091C3
:102BB00024060190F081E02D83E296E0099582E3FE
:102BC00090E00E9442080E9447088111F8CF0E94BD
:102BD000C40B25ECA22E21E0B22E35E0832E912CE1
:102BE00081E793E048E2742E780E81EF93E058E29B
:102BF000652E680E8EE2E82EF12C9DE1C92ED12CB7
:102C00008FB7F8944091AE015091AF016091B0013F
:102C10007091B1018FBF80912B06942F981B8091EA
:102C20002C06882329F090932D0610922C063CC286
:102C300020912A06921748F49F5F921708F034C239
:102C400081E083BF889513BE2FC291E090932C063C
:102C500040932B0620912606309127062F5F3F4F89
:102C60003093270620932606F50181118FEF00246B
:102C700081938193819381930394D1F710923106CC
:102C80001092300610922F0610922E068091280680
:102C9000809329060E944708809328068091B401FA
:102CA000813059F038F0823009F446C1833009F49C
:102CB00089C1F7C10E94C40BF4C10E94B8090E94E7
:102CC000470887FF04C080910B06825007C00E940E
:102CD000470884FF06C080910B068E5F80930B0629
:102CE00028C080E20E949411882321F082E0809322
:102CF000B4011FC088E00E9494118823D1F0809114
:102D0000B2019091B301892BA1F410910B061D5FC4
:102D100086E090E00E94B01BFC0185E0848393E094
:102D200095831082118382831383F093B301E09320
:102D3000B201E091B201F091B301309739F0858191
:102D40009081980F90839281890F828380910B06E6
:102D5000883010F489E003C08F3218F08FE280933E
:102D60000B06309709F452C08281803839F4CF01C4
:102D70000E94451C1092B3011092B2018091B201E1
:102D80009091B301FC0142812091FF05421770F040
:102D900050E030E02C5F3F4F241735073CF0FC013A
:102DA000438120910006421708F086C18091B2014C
:102DB0009091B301FC0142812091F405421770F01B
:102DC00050E030E02C5F3F4F241735073CF0FC010A
:102DD00043812091F505421708F084C18091B2012A
:102DE0009091B301FC0142812091E905421770F0F6
:102DF00050E030E02C5F3F4F241735073CF0FC01DA
:102E000043812091EA05421708F082C18091FF05B5
:102E1000823008F493C18091F405823008F48EC1A9
:102E20008091E905823008F489C1F0910B06209168
:102E3000FF052D30C8F4309100068F2F90E0432F0E
:102E400050E0F31738F0BA016A5F7F4F68177907CF
:102E50000CF077C1BC016A5F7F4F6417750724F0DF
:102E6000481759070CF06DC13091F4053D30C8F496
:102E70006091F5058F2F90E0462F50E0F61738F05F
:102E8000BA016A5F7F4F681779070CF05EC1BC0119
:102E90006A5F7F4F6417750724F0481759070CF0D5
:102EA00054C1E091E905ED30C8F46091EA058F2F37
:102EB00090E0462F50E0F61738F0BA016A5F7F4F76
:102EC000681779070CF045C1BC016A5F7F4F641732
:102ED000750724F0481759070CF03BC1809126066E
:102EE00090912706B4010E94821B892B09F0D9C05A
:102EF00040910306411105C080910106281B2093D3
:102F0000FF059091F805911105C08091F605381BD9
:102F10003093F4058091ED05811105C02091EB05FA
:102F2000E21BE093E905442309F4BBC0992309F4AB
:102F3000B8C0811112C1B5C00E94B809E1E7F3E041
:102F40007E1621F0808188608193FACFE1EFF3E073
:102F50006E1621F0808180648193FACF0BE110E03E
:102F600021E0A8016CE270E083E296E00E94510843
:102F70000F5F1F4F0732110599F70BE110E021E0B9
:102F8000A80163E570E083E296E00E9451080F5FBC
:102F90001F4F0732110599F7F0922F06E0922E0687
:102FA000D0923106C092300687E491E00E94011071
:102FB00080E20E949411882309F473C081E0809319
:102FC000B4016FC088E290E090932F0680932E06A4
:102FD00010923106109230068EE491E00E940110AA
:102FE0000CE110E010932F0600932E068CE090E089
:102FF000909331068093300688E591E00E9401109D
:1030000010932F0600932E0688E190E090933106EE
:1030100080933006609118067091190680911A0607
:1030200090911B060E94FA1210932F0600932E0611
:1030300084E290E0909331068093300660911E0602
:10304000CE0101960E94981066E671E0CE010796C7
:103050000E945D07BE016F5F7F4FCE0107960E9401
:10306000CB060E947313CE0107960E944F07CE0134
:1030700001960E944F0784E090E090932F06809382
:103080002E0680E390E090933106809330068EE622
:1030900091E00E94011088E00E9494118111109229
:1030A000B40180E00E949E1280E090E0892B09F438
:1030B000A7CD0E9400009ECD50E030E02A5F3F4F38
:1030C000241735070CF472CE0E94451C1092B301F0
:1030D0001092B20181E080930306809102060E9463
:1030E000600B64CE50E030E02A5F3F4F2417350775
:1030F0000CF474CE0E94451C1092B3011092B201E0
:1031000081E08093F8058091F7050E94600B66CE00
:1031100050E030E02A5F3F4F241735070CF476CE9D
:103120000E94451C1092B3011092B20181E080937D
:10313000ED058091EC050E94600B68CE0E94C00AEC
:1031400074CE83E08093B4018FCE83E08093B4018A
:10315000A8CE83E08093B401C1CE0E94C00AA1CF63
:103160000F931F93CF93DF938C0181E090E00E9437
:103170004F0880FF32C08AE090E00E944F089FEF26
:10318000980F9E3F50F522E330E0D80150963C93D3
:103190002E931F9728E330E052963C932E9351973D
:1031A000CBE0D0E0D801ED91FC910190F081E02DD1
:1031B000682FC8010995CE010E944F082196C131A0
:1031C000D10581F780E00E949E1288EE93E0DF91A6
:1031D000CF911F910F910C944208DF91CF911F91D5
:1031E0000F91089504970C94B018CF93DF9385EC5A
:1031F00095E00E944F07C9EED5E02697CE010E94C8
:103200004F0785E0CB3CD807C1F78EEE95E00E94D2
:103210004F0789EF95E00E944F0784E096E00E94F7
:103220004F078CE096E00E944F0782E196E0DF9125
:10323000CF910C944F07E2E4F6E01382128288EEFD
:1032400093E0A0E0B0E084839583A683B78385E212
:1032500091E0918380838FEF9FEF95878487EFE1E3
:10326000F6E0138212821186128680E1838710862F
:103270001782158687E391E09183808385E491E04E
:1032800095838483108A1786128A118A81E0838B42
:10329000148A858B168A6DE671E082E196E00E94C1
:1032A0005D07109218061092190610921A061092D5
:1032B0001B066FE971E08CE096E00E945D07EAE092
:1032C000F6E0108280E2818321E04EE060E78FEF3C
:1032D00095E00E945E0920E04CE160E784EF95E014
:1032E0000E945E0920E04BE260E789EE95E00E94D3
:1032F0005E0962EA71E08BEC95E00E945D0764EA8A
:1033000071E081ED95E00E945D0766EA71E087ED6E
:1033100095E00E945D0768EA71E08DED95E00E94FE
:103320005D076BEA71E083EE95E00E945D076DE654
:1033300071E085EC95E00C945D07CF92DF92EF92FF
:10334000FF920F931F93CF93DF931F92CDB7DEB7FA
:10335000182F062FE42E862F880F8E5F99830E94E8
:10336000CB1383E00E94CB13F12EC12E9981D92E6D
:103370008C2D8F19801798F4F601E7FE02C0849116
:1033800001C080810E94CB13182F80E00E94CB13D4
:103390008123FFEFCF1ADF0A8111EACF01C081E05C
:1033A0000F90DF91CF911F910F91FF90EF90DF90E1
:1033B000CF9008958F929F92AF92BF92CF92DF925B
:1033C000EF92FF92CF93DF93EC01688179818A813C
:1033D0009B81611571058105910521F464E279ED08
:1033E0008BE597E02DE133EF41E050E00E94E81AD1
:1033F00049015A019B01AC01A7EAB1E40E94071BF5
:103400006B017C01ACEEB4EFA50194010E94151B89
:10341000DC01CB018C0D9D1DAE1DBF1DB7FF03C090
:103420000197A109B04888839983AA83BB839F77BA
:10343000DF91CF91FF90EF90DF90CF90BF90AF9052
:103440009F908F9008950E94DA1908958CE091E082
:103450000E94DA190895A0E0B0E080930C019093E7
:103460000D01A0930E01B0930F0108958F929F92CA
:10347000AF92BF92CF92DF92EF92FF92CF93DF9302
:10348000EC01688179818A819B81611571058105D3
:10349000910521F464E279ED8BE597E02DE133EFBE
:1034A00041E050E00E94E81A49015A019B01AC0139
:1034B000A7EAB1E40E94071B6B017C01ACEEB4EFFC
:1034C000A50194010E94151BDC01CB018C0D9D1DF3
:1034D000AE1DBF1DB7FF03C00197A109B048888387
:1034E0009983AA83BB83BC01CD019F77DF91CF91E4
:1034F000FF90EF90DF90CF90BF90AF909F908F9014
:1035000008950E94361A089580E191E00E94361ACB
:1035100008956093100170931101809312019093AC
:1035200013010895BB274A3031F4992322F4BDE2F8
:10353000909581959F4F0C94A91A4532510520F41E
:10354000423010F00C94A81AFB011082CB010895B0
:10355000BB27FB015527AA27880F991FAA1FA4176D
:1035600010F0A41B83955051B9F7A05DAA3308F061
:10357000A95DA193009779F7B111B1931192CB0195
:103580000C94C21ADC01FC01672F71917723E1F7DB
:10359000329704C07C916D9370836291AE17BF0720
:1035A000C8F30895F999FECF92BD81BDF89A992785
:1035B00080B50895262FF999FECF1FBA92BD81BD1F
:1035C00020BD0FB6F894FA9AF99A0FBE01960895A5
:1035D000052E97FB1EF400940E94FF1A57FD07D09A
:1035E0000E94511B07FC03D04EF40C94FF1A509517
:1035F0004095309521953F4F4F4F5F4F08959095DF
:103600008095709561957F4F8F4F9F4F08950E94D1
:10361000731BA59F900DB49F900DA49F800D911DCD
:1036200011240895B7FF0C94071B0E94071B821BEF
:10363000930B08952F923F924F925F926F927F92D9
:103640008F929F92AF92BF92CF92DF92EF92FF92B2
:103650000F931F93CF93DF93CDB7DEB7CA1BDB0B5E
:103660000FB6F894DEBF0FBECDBF09942A88398803
:1036700048885F846E847D848C849B84AA84B9840A
:10368000C884DF80EE80FD800C811B81AA81B98116
:10369000CE0FD11D0FB6F894DEBF0FBECDBFED012A
:1036A0000895A1E21A2EAA1BBB1BFD010DC0AA1F83
:1036B000BB1FEE1FFF1FA217B307E407F50720F09B
:1036C000A21BB30BE40BF50B661F771F881F991F16
:1036D0001A9469F760957095809590959B01AC015F
:1036E000BD01CF010895A29FB001B39FC001A39F68
:1036F000700D811D1124911DB29F700D811D11242B
:10370000911D0895AA1BBB1B51E107C0AA1FBB1F37
:10371000A617B70710F0A61BB70B881F991F5A955D
:10372000A9F780959095BC01CD01089597FB072ED0
:1037300016F4009407D077FD09D00E94821B07FC85
:1037400005D03EF4909581959F4F089570956195B1
:103750007F4F0895EE0FFF1F0590F491E02D09941F
:10376000CF93DF938230910510F482E090E0E091F6
:103770009406F091950620E030E0C0E0D0E030976C
:1037800011F14081518148175907C0F04817590776
:1037900061F482819381209719F09B838A832BC0E7
:1037A000909395068093940626C02115310519F053
:1037B0004217530718F49A01BE01DF01EF0102809E
:1037C000F381E02DDCCF2115310509F1281B390BE0
:1037D0002430310590F412968D919C9113976115C8
:1037E000710521F0FB019383828304C090939506B9
:1037F00080939406FD01329644C0FD01E20FF31F51
:1038000081939193225031092D933C933AC020919A
:10381000920630919306232B41F4209116013091AA
:103820001701309393062093920620911401309152
:1038300015012115310541F42DB73EB7409118010E
:1038400050911901241B350BE0919206F0919306DB
:10385000E217F307A0F42E1B3F0B2817390778F067
:10386000AC014E5F5F4F2417350748F04E0F5F1FC6
:1038700050939306409392068193919302C0E0E0A7
:10388000F0E0CF01DF91CF9108950F931F93CF9375
:10389000DF93009709F48CC0FC01329713821282E7
:1038A00000919406109195060115110581F420816F
:1038B0003181820F931F2091920630919306281731
:1038C000390779F5F0939306E093920671C0D80119
:1038D00040E050E0AE17BF0750F412962D913C9196
:1038E0001397AD012115310509F1D901F3CF9D01E0
:1038F000DA013383228360817181860F971F8217DB
:10390000930769F4EC0128813981260F371F2E5F58
:103910003F4F318320838A819B8193838283452B10
:1039200029F4F0939506E093940642C01396FC9315
:10393000EE931297ED01499159919E01240F351F85
:10394000E217F30771F480819181840F951F02962D
:1039500011969C938E938281938113969C938E9360
:103960001297E0E0F0E0D80112968D919C911397A8
:10397000009719F0F8018C01F6CF8D919C91980178
:103980002E5F3F4F820F931F209192063091930636
:103990002817390769F4309729F410929506109288
:1039A000940602C01382128210939306009392062B
:1039B000DF91CF911F910F910895A0E0B0E0E3EE69
:1039C000FCE10C941E1BEC01009721F4CB010E943A
:1039D000B01BB8C0FC01E60FF71F9C012250310953
:1039E000E217F30708F4ACC0D9010D911C911197AF
:1039F00006171707B0F00530110508F49FC0C8017D
:103A000004978617970708F499C002501109061BFE
:103A1000170B019311936D937C93CF010E94451C6A
:103A20008DC05B01A01AB10A4C01800E911EA091BD
:103A30009406B091950640E050E0E12CF12C1097EF
:103A400009F44AC0A815B905D1F56D907C9011977D
:103A5000630182E0C80ED11CCA14DB0480F1A3010B
:103A60004A195B096A0182E0C80ED11C1296BC900B
:103A700012971396AC91B5E0CB16D10440F0B28208
:103A8000A38351834083D9016D937C930AC00E5F59
:103A90001F4FC301800F911FF90191838083EB2D8C
:103AA000FA2FE114F10431F0D7011396FC93EE9351
:103AB000129744C0F0939506E09394063FC08D9111
:103AC0009C9111974817590708F4AC017D01129693
:103AD0000D90BC91A02DB3CF80919206909193064A
:103AE00088159905E1F446175707C8F48091140129
:103AF00090911501009741F48DB79EB74091180140
:103B000050911901841B950BE817F907C8F4F0933D
:103B10009306E0939206F901718360830FC0CB0195
:103B20000E94B01B7C01009759F0A801BE010E94C1
:103B3000AC1DCE010E94451CC70104C0CE0102C0CD
:103B400080E090E0CDB7DEB7EEE00C943A1B81E068
:103B500090E0F8940C94C51DFB01DC0102C00190BB
:103B60000D9241505040D8F70895FB01DC018D9132
:103B7000019080190110D9F3990B0895FB01DC0124
:103B800001900D920020E1F7089515E0C0E7D5E01F
:103B900004C0FE010E94AA1B2196C137D107C9F7B4
:043BA000F894FFCFC7
:103BA400FFFFFFFF00E10000000000000100000033
:103BB4000100000000009606800000C18081000022
:103BC4000000000000270C620CE70C3D0C480C0FB1
:103BD4000DEB0C000000006F089C05EE05ED05B030
:103BE40018FCFF0000F218506175736564004761AA
:103BF4006D65204F76657200526F756E6420526554
:103C0400616368656400416E7377657220004D617D
:103C1400646520427920526574726F626974436FDF
:103C2400646572007B007D0052454144590043485D
:103C3400415247494E470050726573732041003E1C
:0E3C44003D0026007C005E003C3C003E3E0041
:00000001FF
